:020000040800F2
:10000000005000206508000808B540F6694300204C
:10001000C0F60003984708BD00B50A4B83B0984767
:100020000024094B9847094D4FF47A710222084B7E
:1000300020460094A847074B20469847064B984710
:10004000FEE700BF150900085D000008C10E0008AA
:1000500009000008E10E000861010008704700BFB8
:1000600008B5074B07491A880988013292B29142B4
:100070001A8004D800221A801046034B984708BD06
:100080000002002000000020690C000838B543F28F
:10009000AC5040F2717443F2B055C0F60004C0F6A3
:1000A0000005C0F60000A0472846A04743F2EC50E8
:1000B000C0F60000A0472846A04743F22860C0F6DB
:1000C0000000A04743F26460C0F60000A04743F27E
:1000D000A060C0F60000A04743F2DC60C0F600005C
:1000E000A04743F21870C0F60000A04743F25470D6
:1000F000C0F60000A04743F29070C0F60000A04791
:1001000043F2CC70C0F60000A04743F60800C0F6EA
:100110000000A04743F64400C0F60000A047284670
:10012000A04743F6A400C0F60000A04738BD00BFBA
:1001300038B543F6800040F27174C0F60004C0F692
:100140000000A04740F68133C0F6000398470546FB
:1001500043F6A400C0F60000A047284638BD00BF03
:100160002DE9F047002482B06C4FB8476C4D204613
:100170000A2102226B4B0094A84720466A4B9847FD
:100180006A4CDFF8C891DFF8C881694D694EA04715
:100190000346002800F08E80A3F131003C28F6D8F9
:1001A00001A353F820F000BFF3020008D9020008B1
:1001B000BB0200089D0200088F0100088F010008A3
:1001C0008F0100088F0100088F0100088F010008CF
:1001D0008F0100088F0100088F0100088F010008BF
:1001E0008F0100088F0100088F0100088F010008AF
:1001F0008F0100088F0100088F0100088F0100089F
:100200008F0100088F0100088F0100088F0100088E
:100210008F0100088F0100080D0300088F010008FE
:100220008F0100088F0100088F0100088F0100086E
:100230008F0100088F0100088F0100088F0100085E
:100240008F0100088F0100088F0100088F0100084E
:100250008F0100088F0100088F0100088F0100083E
:100260008F0100088F0100088F0100088F0100082E
:100270008F0100088F0100088F0100088F0100081E
:100280008F0100088F0100088F0100088F0100080E
:100290008F0100088F0100080D030008C84782463F
:1002A000C047514602462448A847A04703460028B5
:1002B0007FF472AF02B0BDE8F08731881D4B053185
:1002C00089B2642988BF00211C481980A8470020F2
:1002D00031881B4B98475AE71A4B1988092902D9CC
:1002E0000A3989B2198001EB810117484900A847F2
:1002F0004DE7144A13880A339BB2642B08D803EBEA
:100300008301138049001048A84740E7B8473EE7FB
:10031000642313804FF47A71F5E700BF8D00000865
:10032000C10E000861000008E10E0008310100085C
:100330007107000802020020A83800089838000859
:10034000C51900080000002084380008B51B00080B
:10035000C51B000838B5094B05461B7853B1084A40
:10036000084914680868631C055509681360002271
:10037000CA5438BD044B984738BD00BF080200205E
:1003800004020020D0020020450B000838B50446C6
:10039000007828B1034DA84714F8010F0028FAD1BE
:1003A00038BD00BF5503000830B4D0B10378D3B1D5
:1003B00000230B6002789AB1A2F13004E2B2092A5C
:1003C00002D912E0092D10D803EB830304EB430399
:1003D0000B6010F8012FA2F13004E5B2002AF1D130
:1003E000012030BC70471846FBE70020F9E700BF4A
:1003F0002DE9F047002384B0B1F100080093A8BFB5
:10040000994603788246BCBFC8F100084FF0010945
:10041000002B00F0B9800025642B28D05B4E2C46C1
:100420002F46A3F13102082A77D81AF804200AEBE4
:100430000401A2F13003092B01A84FF0000309D8F1
:10044000C25411F8012F0134A2F1300E0133BEF174
:10045000090FF5D904AAD318694603F80C7C013CAE
:10046000B04701341AF804300BB1642BD9D1B9F17B
:10047000000F40F085800098002852D0092878DDD0
:1004800009200090062207210A2303EB8303013988
:100490005B004C1CF9D198FBF3F10A24022803FB02
:1004A000118805D004EB8404013A6400531CF9D18F
:1004B00046F26767364E4FF00109C6F266670DE0F7
:1004C000B9F1000F1CD0302005B92020B04787FBC0
:1004D0000423E417C4EBA304002C1BDD98FBF4F306
:1004E000D8B23030B4F1010EDEF1000252EB0E0250
:1004F000002B18BF42F0010204FB1388002ADFD052
:10050000B04787FB0423E417C4EBA304002C4FF08F
:100510000009E3DC04B0BDE8F087302B08BF0125FB
:100520009FE74FF44A4446F26767194E0A25C3F61F
:100530009A340121C6F2666708E0B047002187FBC4
:100540000423E417013DC4EBA304E3D0601E424240
:1005500098FBF4F34241002B18BF42F00102D8B2DD
:10056000303004FB1388002AE7D10029E5D00121AF
:10057000E5E7431E811EC21E002B85D10A238AE7B0
:100580002D20034EB04776E71D4670E7A90300080B
:10059000550300082DE9F043037887B00026814613
:1005A00001910296002B00F08580782B00F082806C
:1005B0006D4F3446B046A3F13102082A76D819F8B7
:1005C000042009EB0401A2F13003092B03A84FF02A
:1005D000000308D8C25411F8012F0134A2F13005EC
:1005E0000133092DF6D906AAD31802A903F80C8CF9
:1005F000013CB847013419F804300BB1782BDAD13B
:10060000019A029B12BA0192002B56D0DA0758BF0A
:100610004FF0010821D5DB43083303EBD37306AA5F
:1006200002EB630313F8143C13F00F030BD0092BF8
:1006300098BF03F1300001D903F137004B4FB847A1
:100640004FF0000806E0002E7CD03020474FB8471E
:100650004FF00108029B013B0293C3F1080303EB37
:10066000D3735C10032C1EDC01AB404F1C190DF141
:10067000080914F8013B03F00F051B094DD0092BA5
:1006800088BF03F1370069D9B8474FF00008002D43
:100690004BD0092D88BF05F1370059D9B8474FF025
:1006A00000084C45E5D107B0BDE8F083302B08BF0A
:1006B00001269FE7019B1BBA01930DF1030616F873
:1006C000013F0122002403F00F051B09274F1ED014
:1006D000092B88BF03F137003DD9B84700222B1CF6
:1006E00018BF0123032C08BF43F0010393B1092D68
:1006F00088BF05F1370034D9B84700220134042CF3
:10070000D1D016F8013F03F00F051B09E0D112B359
:100710000122E4E72AB30122F0E7B8F1000F1DD06F
:1007200056B13020B847002DB3D1B8F1000F0FD02B
:100730002EB13020B847B4E72020B847A7E72020E3
:10074000B847AEE72020094FB8474FF0010881E7CE
:1007500005F13000A2E703F13000BEE703F13000FD
:1007600092E705F13000C7E7A90300085503000828
:100770000FB42DE9F04784B00DF1300A344B00225C
:100780005AF8044B334D344FDFF8D480334E1A708F
:100790000DF10409207850B325282DD18DF80400DF
:1007A000621C0121944612F8013BA3F16304782BEB
:1007B00018BF012C104622D9732B20D0252B1ED018
:1007C00001F8093001310A29ECD19CF80130441CB0
:1007D000642B1FD025D8252B36D0632BDAD19AF87D
:1007E0000000A84720780AF1040A0028D4D104B0F8
:1007F000BDE8F04704B07047A8470134CAE704AA2F
:1008000060465118441C0022642B01F80C3C01F88E
:100810000B2CDFD1DAF8001048460AF1040AB84779
:10082000B8E7732B08D0782BB4D1DAF8001048461B
:100830000AF1040AB047ADE7DAF800000AF1040A49
:100840000028A7D0C047A5E71846A847A2E700BFE1
:100850000802002055030008F10300089505000870
:100860008D030008684620F007018D4619B523491D
:10087000234B99420BD2C843C01820F00300214CEF
:10088000043000231A595A5004338342FAD11F48C6
:100890001F494FF000028842B8BF40F8042BFFF612
:1008A000FAAF4FF48054C4F202042268002342F4E9
:1008B0008032226040F2FF4021680133834281F49C
:1008C00000318CBF0022012212EA5142F4D14FF4D0
:1008D0000053C4F202031A6842F010021A601A6848
:1008E00022F003021A601A6842F002021A60064BF4
:1008F0009847BDE819408546704700BF00000020BA
:10090000E8000020B43900081900000800020020A7
:1009100094140020F8B540F69133C0F600039847D0
:1009200040F67953C0F60003984740F604064FF4AA
:10093000006E43F2B3474FF4406540F6044441F281
:10094000040144F244404FF03332C4F2010EC4F2C9
:100950000101C3F24430C4F20106C3F23337C4F2DA
:100960000105C4F2010441F23933CEF80020C0F68B
:10097000000337602A6022600860984740F6D92358
:10098000C0F60003984740F62543C0F60003984799
:1009900040F6C953C0F60003984741F24103C0F640
:1009A0000003984741F25923C0F60003984740F6E8
:1009B0003573C0F60003984740F60973C0F600038C
:1009C000984741F67503C0F60003984741F6AD130A
:1009D000C0F60003984741F62143C0F6000398474C
:1009E000F8BD00BF002382B00193019B984205D956
:1009F000019B01330193019B8342F9D302B07047FD
:100A000041F2707382B003FB00F000230193019B5D
:100A1000984205D9019B01330193019B9842F9D873
:100A200002B0704700B543F60403C4F2010383B07B
:100A30001B6802A901F8013D40F6C5430020C0F63D
:100A40000003984703B000BD2DE9F04141F21806BC
:100A5000C4F20206356840F2D423C2F2000343F622
:100A60000C0458609960C4F2010445F480480C23DA
:100A700043F6100C43F6140E43F60807C6F8008040
:100A800000222360C4F2010CC4F2010E40F2712373
:100A9000C4F201074EF20415CCF80020CEF2000596
:100AA000CEF800203B602B68252043F020032B600C
:100AB000216840F68D5341F02001216040F6252148
:100AC000C0F60003C0F600019847236843F40053C2
:100AD0002360BDE8F08100BF40F67D4310B5C0F64D
:100AE0000003984740F2D4230022C2F2000340F6EC
:100AF00049244FF4E1301146C0F600045A609A6070
:100B00001A615A61DA611A629A62DA625A639A6306
:100B1000A04710BD30B5002383B0084D04468DF8C2
:100B200007302046A8470028FBD020460DF10701DA
:100B3000034B98479DF8070003B030BD990C00089F
:100B4000210D00080A280DD04FF46052C4F20102B2
:100B500013681906FCD543F60403C0B2C4F20103BE
:100B6000186070474FF46052C4F2010213681B060C
:100B7000FCD543F60403C4F201030D221A60E3E737
:100B800008B540F615330020C0F60003984708BDAD
:100B900041F20403C4F202031A684FF4805122F4B4
:100BA0007C1222F0F0021A601A68C4F2020142F4C8
:100BB000E8121A600B680A4643F080730B601368F2
:100BC0009B01FCD541F20403C4F2020319681A46E2
:100BD00021F003011960196841F0020119601968D8
:100BE00021F480011960196821F4E0611960196825
:100BF00041F480611960196821F460511960196825
:100C00001960136803F00C03082BFAD141F21803A2
:100C1000C4F202031A6842F4804242F01D021A60D4
:100C2000704700BF0422C4F2010211684FF4406310
:100C300021F0E06111601168C4F2010341F08061AC
:100C40001160196840F60C4221F47041196019686E
:100C5000C4F2010241F44051196019681960136827
:100C600043F008031360704738B940F60C43C4F2F0
:100C700001031A6882F008021A60704700230448D2
:100C800004491A461A525A5202330E2BFAD17047AF
:100C9000080400201804002040F2184240F20843E3
:100CA000C2F20002C2F2000333F9103032F9102010
:100CB000D21A2032D317DB0ED21802F01F00C01A4E
:100CC000704700BF70B4134C134B34F8106033F905
:100CD000102035B2AA1A2032D317DB0ED21802F038
:100CE0001F02D31A1F2B12D0013636B2F317DB0EB8
:100CF00000EB4012F6180978551906F01F06074A4E
:100D0000F31A24F810305155012070BC70470020B0
:100D1000FBE700BF18040020080400201003002097
:100D200070B4124C124A34F81060034632F91000C5
:100D300035B2401B2030C217D20E801800F01F00C1
:100D4000801A10D0013636B2F21703EB4310D20EE0
:100D500045190848B618405D06F01F06B21A08701B
:100D6000012024F8132070BC704700BF0804002045
:100D7000180400201003002040F200634EF60852D1
:100D8000C2F20003CEF200021360704740F200632B
:100D90001030C2F2000343F82010704740F20063A5
:100DA0008008C2F2000343F82010704708B540F6EF
:100DB000B16140F69D533C20C0F600010022C0F610
:100DC0000003984708BD00BF10B51B4C2378012BCA
:100DD00030D01A4B002203F1700103F8082C23F8DD
:100DE000062C23F8042C43F8102B8B42F5D1144B1E
:100DF00098474EF2140141F63F10CEF200014EF238
:100E00001802C0F201000860CEF200024EF2100398
:100E10000021CEF2000311601A6842F004021A6049
:100E20001A6842F002021A601A6842F001021A605F
:100E30000123237010BD00BF7C020020140200209B
:100E4000AD0D000838B5174B174A19680131196004
:100E500013889BB21BB11388013B9BB21380134CC8
:100E600004F1700502E01034AC421AD014F8083CCA
:100E7000012BF8D134F8063C013B9BB224F8063C28
:100E8000002BF0D114F8072C012A34F8042C08BFE9
:100E900004F8083C24F8062C236810349847AC4228
:100EA000E4D138BD8002002084020020140200201A
:100EB00008B540F64563C0F60003984708BD00BF7B
:100EC00010B440F20C24C2F2000404EB0010836062
:100ED000019B4270C3604180818010BC704700BF9D
:100EE000062803D8024B000101221A54704700BFA4
:100EF0000C020020034A108013889BB2002BFBD108
:100F0000704700BF8402002008B542F2B143C0F62A
:100F10000003984742F2D143C0F60003984742F2DB
:100F20001553C0F60003984743F27503C0F600035B
:100F3000984708BD08B540F68D73C0F60003984782
:100F400008BD00BF0422C4F20102116840F6044348
:100F500041F002011160C4F201031A6822F00F028D
:100F60001A601A6842F003021A601A6842F00C0212
:100F70001A601A6822F0F0021A601A6842F0300211
:100F80001A601A6842F0C0021A60704738B540F61D
:100F90004573C0F6000398474FF4A843C4F200031A
:100FA000002545F204441D60C4F2000445F21C40D3
:100FB00024252560C4F2000045F2204148F21E04B9
:100FC0000460C4F20001042041F21C020860C4F273
:100FD0000202106845F2144140F4001010601868D5
:100FE00045F2184220F0020018601868C4F20001AF
:100FF00040F001001860C4F200020B68136838BDAD
:1010000038B540F6E51540F60C44C4F20104C0F6CC
:1010100000056420A8472368642043F02003236070
:10102000A84723684FF4FA7023F020032360A847F1
:101030002368642043F020032360A84738BD00BF25
:1010400008B540F63573C0F6000398474FF4406387
:10105000C4F20103196841F2010221F47001196020
:101060001968C0F6000241F440111960196819604E
:10107000904708BD40F60443C4F2010319684FF4D9
:10108000605221F4702119601868C4F2000240F423
:1010900040301860186843F6040140F400201860DE
:1010A0001868C4F2000120F470001860186840F459
:1010B00040101860186840F400001860186820F0AC
:1010C00070401860186840F040501860186840F090
:1010D0000040186044F21C03136004230B60136883
:1010E00043F040031360704710B5084C2378012B80
:1010F0000BD041F21C03C4F202031A6842F480428E
:101100001A60034B98470123237010BD860200200C
:101110007510000801280BD143F60403C4F2000344
:101120001A6842F002021A601A6842F001021A605C
:10113000704700BF012801D00020704743F6080027
:1011400042F20F73C4F2000002E013F1FF3305D343
:1011500002689207F9D50BB90120704743F60C03DA
:10116000C4F2000343F608001960C4F2000042F222
:101170000F7302E013F1FF3304D30268D207F9D5ED
:10118000002BE9D043F60C03C4F200031B680020D7
:10119000704700BF08B50D4B984701280DD00C4B88
:1011A0001B6803B908BD0B480B494FF4FC720B4B8D
:1011B000984701200A4B984708BD054A1368002B41
:1011C000F0D0013B1360002BECD0ECE7D513000806
:1011D0008C09002090070020900900205D13000872
:1011E0001511000810B540F60C44C4F20104226841
:1011F00040F6F56322F48062C0F6000322600A2004
:101200009847236843F48063236010BD10B540F60F
:101210000C44C4F201042368014623F4006241F245
:10122000351322600120C0F600039847236843F479
:101230000063236010BD00BF70B541F20D24054668
:10124000C0F6000441F04000A047064645F080008B
:10125000A047304380B270BDF0B52D4B83B09847A6
:1012600040F60443C4F201031A6840F60C4422F429
:1012700070621A601A68C4F2010442F440721A6083
:101280001A68244D1A601A68002622F470421A6007
:101290001A68214F42F440521A601A681A60236893
:1012A00043F480632360236823F4006323601B4BB3
:1012B00098472120A847C620A8470620A847132002
:1012C000A8472020A8470C20A8473146144B304699
:1012D00098472368212143F400632360114C0222C4
:1012E00000960320104B26803E60104CA047104B08
:1012F000032098470F4B314603F5FC7203F8011F9A
:101300009342FBD13B6802333B6003B0F0BD00BFAA
:10131000E91000080D1200088C090020E5110008F2
:10132000391200088809002095110008C10E000834
:10133000E10E00088F070020074A1378012B09D01F
:1013400041F21403C4F20203196841F0010119606B
:1013500001231370704700BF870200202DE9F001C0
:1013600044234C2743F60C045026C4F202034FF0EA
:10137000000CC4F20004C4F20207C4F202064825BD
:10138000C3F800C0C4F202053C6031604FF48451E0
:101390002A601960D3F800805821602764265C25F4
:1013A00048F00108C3F80080C4F202019023C4F29F
:1013B0000207C4F20206C4F20205C1F800C03C6094
:1013C00030602A600B600B6843F001030B60BDE8DE
:1013D000F00170470023C4F20203186810F40050B3
:1013E0000AD0186810F4003006D00423C4F20203B7
:1013F0004FF408321A600120704700BF0422C4F283
:101400000102116840F6044341F002011160C4F288
:1014100001031A6822F00F021A601A6842F00302F0
:101420001A601A6842F00C021A601A6822F0F00280
:101430001A601A6842F030021A601A6842F0C0025C
:101440001A60704770B51E4C2378012B36D01D4BA7
:1014500098474FF4A843C4F20003002645F2044520
:101460001E60C4F2000545F21C4024262E60C4F222
:10147000000045F2204148F21E050560C4F200015B
:101480000B2041F21C020860C4F20202106845F20F
:10149000144140F400101060186845F2184220F022
:1014A000020018601868C4F2000140F001001860E2
:1014B000C4F200020B6813680123237070BD00BFE3
:1014C00088020020FD13000845F21443C4F2000313
:1014D0001A68196812F4006F1A6814BF0B200020F4
:1014E0001B6811F4806F18BF0A2012F4007F18BF28
:1014F000092013F4807F18BF08207047F0B55F1EE5
:101500008DB0FFB203B91F4645F21446C4F200067F
:10151000356845F218440195C4F2000424684FF47C
:10152000A8450294C4F20005D5F800C042F2107438
:101530004CF4807CC5F800C002E0013C00F0C7809C
:1015400035680395039D15F0010FF6D045F2184656
:1015500042F21074C4F2000602E0013C00F0B780D1
:1015600035680495049D15F0010FF6D045F210443E
:10157000C4F20004400045F214462060C4F20006A4
:1015800042F2107402E0013C00F0A4803568059539
:10159000059D15F0020FF6D045F21844C4F2000480
:1015A000246845F214460294C4F2000642F2107414
:1015B00002E0013C00F0968035680695069D15F026
:1015C000800FF6D045F2144642F21074C4F20006C1
:1015D00002E0013C00F0868035680795079D15F014
:1015E000800FF6D045F21044C4F2000445F21445D1
:1015F0002160C4F2000542F2107101E0013975D09A
:101600002C680894089C14F0040FF7D04FF4A841FC
:10161000C4F200010C6845F2144544F480740C6077
:10162000C4F2000542F2107101E001394FD02C687C
:101630000994099C14F0010FF7D045F21041C4F24F
:10164000000140F0010045F214440860C4F20004B7
:1016500042F2107101E001393CD020680A900A98EA
:101660008007F8D545F21841C4F2000109680291DB
:1016700053B34FF4A84545F2144445F2104C0026EC
:10168000C4F20005C4F20004C4F2000C2968B74299
:101690009DBF21F480612960296841F4806198BF71
:1016A00041F40071296042F2107101E001391BD050
:1016B00020680B900B984006F8D5DCF80000711CF0
:1016C0009055CEB2B342E1D8094B984700E00220D2
:1016D0000DB0F0BD45F21843C4F200031B680320AF
:1016E0000293F5E70420F3E70520F1E70620EFE792
:1016F000C9140008034610B541F2FD440A466820AB
:101700001946C0F600040123A04710BD70B54FF480
:10171000A844C4F20004256845F2144645F48075D7
:10172000256086B042F21074C4F2000601E0013C6C
:1017300063D035680095009D15F0010FF7D045F294
:1017400010444000C4F2000445F214452060C4F285
:10175000000542F2107001E0013846D02C68019477
:10176000019C14F0020FF7D045F21840C4F20000BB
:1017700045F214450068C4F2000542F2107001E021
:10178000013858D02C680294029C14F0800FF7D0D6
:1017900045F2144542F21070C4F2000501E0013830
:1017A00049D02C680394039C14F0800FF7D045F2C5
:1017B0001046C4F200063160002B3ED045F21444BE
:1017C0000025C4F2000442F2107101E0013916D084
:1017D0002068049004980006F8D5515D0135EDB2FB
:1017E0009D423160EFD300200AE045F21843C4F275
:1017F00000031B68032006B070BD0220FBE7042035
:1018000045F2144142F21073C4F2000101E0013BC1
:101810001CD00A680592059A5207F8D54FF4A843E0
:10182000C4F200031A6842F400721A600028E2D180
:10183000074B9847DFE70420DDE74FF4A843C4F2E5
:1018400000031A6842F400721A60F1E70620D2E73A
:10185000C914000810B582B0034602AA41F20D7403
:1018600002F8011D68201946C0F600040123A047B4
:1018700002B010BD10B5124C86B02078012810D0EF
:101880002420104B9847104B984701A975200F4B07
:101890009847014638B10E480E4B984701232370F4
:1018A000002006B010BD6B200B4B9847014610B9C5
:1018B00001202070F5E70948064B9847EEE700BF86
:1018C00089020020010A000845140008F5160008E6
:1018D000BC3800087107000855180008D438000803
:1018E0004FF44063C4F201031A6822F00F021A6039
:1018F0001A6842F003021A601A6842F008021A607D
:101900001A6822F0F0021A601A6842F030021A6077
:101910001A6842F080021A60704700BF41F21C0052
:10192000C4F202000368F0B443F0020C4FF4856780
:10193000C0F800C04FF4806240F23F20C4F20007BC
:101940003860C4F20002802040F2044640F21C4598
:1019500010600021C4F2000546F6680040F22C44F5
:10196000C4F200063160C4F2000428604FF48463BE
:1019700040F2E7302060C4F20003186840F23C44B3
:1019800040F4807018601D684FF48860C4F2000055
:1019900045F48055C4F200041D60216001600160BF
:1019A000136843F001031360F0BC704708B541F6BB
:1019B000E103C0F60003984741F61D13C0F600038B
:1019C000984708BD642928BF642101EB81014900C3
:1019D00089B250B940F23C43C4F2000319604FF49D
:1019E0008863C4F20003196070470128F7D070477C
:1019F0005649F0B40B68564F012B3AD006D23B68DB
:101A0000642B67D801333B60F0BC7047022B3B6806
:101A1000F8D1322B6BD0772BF4D94E4C0023012612
:101A20004D4A3B600E6023706370A370E3702371B6
:101A300032F8021F03F007006429C0F1070005D93E
:101A400006FA00F0D908655C284360540133282B5E
:101A5000EED121786078A378E2780818C018801851
:101A6000247900F0FF0084423A4A68D00123537180
:101A7000C9E73D68012D30D0C5D940F60C00C4F24D
:101A800001000368354C43F040034FF40062002628
:101A90002660C4F201020360136840F2044423F09C
:101AA000706313601368C4F20104136013684FF489
:101AB000806043F0806313602368C4F2010043F048
:101AC000400323600368022243F0400303606B1C61
:101AD0000A6098E701230B6095E740F60C02C4F218
:101AE00001021168022321F0400111608BE740F2EE
:101AF0000443C4F2010319684FF4806221F04001ED
:101B00001960C4F20102116840F60C0321F0400193
:101B10001160C4F2010319684FF4006241F0400102
:101B20001960C4F201021168332321F07061116061
:101B3000116841F0407111601168116063E7002085
:101B400013725071D17101235DE700BF9002002034
:101B500094020020E40B0020860B00208C02002061
:101B6000114B40F214411A6830B4901E4024C4F264
:101B7000010127280C600CD90C490132292A88BFA1
:101B80002A221A602423C4F200031B680B8030BC95
:101B9000704724240549C4F2000425680C882D1BD5
:101BA000034C24F81050E8E78C0200209802002033
:101BB000880B002072B662B640F6E433C2F200032E
:101BC000D879704772B662B640F6E433C2F20003C9
:101BD000187A704708B50C23C4F20103196840F263
:101BE0000C4221F4706119601968C4F20102196095
:101BF000116840F68D5341F04001116041F66131AA
:101C00000022C0F600031720C0F6000198474FF4E9
:101C10006143CEF200031A6842F400021A6008BD64
:101C200040F6E43330B5C2F2000300244FF4006202
:101C30001C705C709C70DC705C719C71DC711C723F
:101C4000C4F20102136840F60C0123F070631360C4
:101C50001368C4F2010143F040731360106841F24D
:101C60001C0310600A68C4F2020342F040020A60DA
:101C70001A68282142F001021A60C4F200014723C9
:101C80004FF080420B60116841F6D53341F00101FD
:101C900083B01160C0F60003984740F6C16541F675
:101CA000F113042000940A210222C0F60003C0F6BA
:101CB0000005A84740F6E1630420C0F600039847FA
:101CC00003B030BD38B5154B1A78012A00D038BDA5
:101CD000134C206800B34028124A14D8136885B208
:101CE0001818106000229BB222600F48C021C01853
:101CF0002A460E4B9847012029460D4B9847012054
:101D00000C4B984738BD1368403803F14001206000
:101D10009BB211604025E8E7187038BDBC02002076
:101D2000C8020020C4020020580C0020B93000086E
:101D3000F9320008BD31000810B540F6F034C2F2A7
:101D4000000443F2B93321460320C0F6000398474C
:101D500042F2E153C1B2C0F600032046984743F275
:101D6000E1130320C0F60003984710BD08B5084BE7
:101D70001B68052B00D008BD064B1A68511C052AAC
:101D80001960F8D100221A60034B9847F3E700BFAF
:101D9000B00200209C0200200D26000845F64442B7
:101DA000C4F20002136870B56B4C9BB26B4D23807C
:101DB00021882B8888B0194001F4007189B200296C
:101DC00068D1228802F4004213425FD1228802F4D3
:101DD000806213424ED1228802F4005213421FBF88
:101DE00045F64442C4F200024DF6FF7111602288AC
:101DF00002F48052134231D1228802F4006213426D
:101E00000ED0574B1B78002B25D10220554B9847FD
:101E100045F64442C4F200024FF2FF712B88116074
:101E2000228802F48072134213D045F644424FF6E2
:101E3000FF61C4F2000245F648431160C4F200039A
:101E40001B68190432D4484B00221A600720454B06
:101E5000984708B070BD454B9847D9E745F64443CD
:101E6000C4F200034EF6FF721A6000203D4B984703
:101E70002B88C1E745F64443C4F200034FF6FF3216
:101E80001A603B4B5B6898472B88A4E7394B98470F
:101E90002B889BE7384B4FF6FF5111601A780132BF
:101EA000D2B21A70354B98472B888AE72E490B68B7
:101EB00001330B600B68032BC8D945F64042C4F2CE
:101EC0000002136813F00803C0D110682C4D80B2D3
:101ED0004FF4B8422860C4F2000252F8044B08AE36
:101EE00006EB83000133A4B2082B40F8204CF4D158
:101EF0002A6845F6404342F001022A602A68C4F28B
:101F0000000392B21A602A6845F6444022F00102AA
:101F10002A602A68C4F2000092B21A60026845F68C
:101F200044435205C4F20003F8D54FF4B8424FF6CB
:101F3000FF301860C4F20002002308AC04EB8300F9
:101F400050F8200C013380B2082B42F8040BF4D176
:101F500000230B607AE700BF300C00208C140020B7
:101F6000B402002099230008A8020020692200087A
:101F700060000020F1330008A40200206D1D00085D
:101F8000A0020020034B9B7A13B1034B05221A6079
:101F9000704700BF68140020B002002040F2B02358
:101FA000C2F2000304221A60704700BF034B1A7884
:101FB000202A01D100221A70704700BFAC02002015
:101FC000704700BF212810B5034603D0202811D048
:101FD000022010BD0F4A13681B7803F07F03212BEA
:101FE000F6D10D4913680024204699615C82884728
:101FF000204610BD074A1168097801F07F012129A8
:1020000003D0064A0220137010BD0448044903702F
:10201000E8E700BF8814002059200008AC02002027
:1020200071200008074B1B681B7803F07F03212BEE
:1020300001D002207047022801D02228F9D10020C7
:10204000704700BF8814002009B1022070470128A2
:10205000FBD80846704700BF08B103487047034BE0
:1020600008221B681A827047DC00002088140020B8
:1020700008B103487047034B08221B681A82704757
:10208000DC0000208814002008B5064B1B68DB78B4
:10209000042B05D8044901EBC301044B984708BD44
:1020A000002008BD88140020BC000020CD2A0008B4
:1020B00008B540F2580142F6CD23C2F20001C0F645
:1020C0000003984708BD00BF08B540F2B40142F6CE
:1020D000CD23C2F20001C0F60003984708BD00BF3F
:1020E00041F2884243F67013C0F60003C2F20002C8
:1020F0001268D9792DE9F04743F211130024517287
:102100009472D472C0F60003204643F22516984715
:10211000C0F6000620464FF4007143F23D15B0476B
:10212000C0F600051021204643F2912AA847C0F6C8
:10213000000A4021204643F26D28D047C0F600082F
:1021400080212046C04743F205232046C0F6000305
:10215000984740F26003C2F2000343F2193993F842
:102160002C10C0F600092046C84743F2E113C0F620
:1021700000032046984701202146B0470120C02196
:10218000C04743F27D1701202021A847C0F6000771
:1021900001202146B84702204FF4C061B047022019
:1021A0004FF48071C04702202146B8470220202109
:1021B000A84703202146B04703204FF48871D04739
:1021C00003204021C84703204FF44051B84721461F
:1021D0000320A84742F6C173C0F600032046984783
:1021E00040F2B023C2F2000301221A60BDE8F0877A
:1021F00042F2B16310B5C0F60003984741F288433C
:10220000C2F200031A68002442F22D239472C0F631
:102210000003984743F28D33C0F60003984740F21D
:10222000B023C2F200031C6010BD00BF38B542F2FB
:10223000C5530120C0F60003984745F6444545F6CE
:10224000404341F28C42C4F2000300214FF4E054B9
:102250000120C4F20005C2F20002186019600846AD
:10226000296014801C6038BD70B5002382B045F62B
:102270004041C4F2000101934FF4B8420D683A495D
:10228000C4F2000252F8040B80B241F8230001337B
:10229000082BF7D1AAB24FF6FE7442F4806245F6DD
:1022A00040432C40C4F2000342F0010644F4806530
:1022B00045F644401A60C4F200001E601D600268CA
:1022C00045F644435205C4F20003F8D54FF4B84232
:1022D0004FF6FF301860C4F20002002351F82300CB
:1022E000013380B2082B42F8040BF7D145F6404386
:1022F000C4F2000344F481641C6019684FF4E042A6
:1023000089B241F004011960C4F2000211684EF66E
:10231000105401911168CEF2000421F0030141F044
:1023200001011160206845F6444140F0040020603E
:10233000C4F200010868C0040FD54EF6FF700860B3
:1023400018684FF6F77101401960019B136023680C
:1023500023F00403236002B070BD044B9847236848
:1023600023F004032360F6E7380C0020F52600086C
:1023700010B545F64044C4F2000423684FF6FB72E2
:102380001A4042F2F543C0F60003226098474FF42A
:102390003F43236010BD00BF10B52B4C072818BF6A
:1023A00020702378052B19D8DFE803F01B222A2F91
:1023B0003A036378013BDBB26370637883B945F617
:1023C0004042C4F2000210684FF6EF710140116004
:1023D0001D4A062111701D4A136010BD062323708B
:1023E00010BD1A4B1B68002B28D00523237010BD8D
:1023F000174B984704232370144B01221A6010BD19
:10240000022363700323237010BD6378013BDBB2AA
:1024100063706378002BE3D10B4B04221A7010BD5C
:1024200045F64043C4F200031A6892B242F010022B
:102430001A60052323700A23637010BD044B98476C
:102440000623237010BD00BF340C0020B80200200A
:102450007123000840F21443C4F201034FF48022B8
:102460001A60704730B4CAB1551EEDB20135002371
:102470006D001C4607E03032CA54CA18023300010E
:10248000AB4254700AD0020F092AF4D93732CA5429
:10249000CA1802330001AB425470F4D130BC70470B
:1024A00008B541F69D53C0F60003984708BD00BF2C
:1024B00041F20403C4F201031A6822F470021A60A4
:1024C0001A6842F400121A601A681A60704700BF56
:1024D00041F20402C4F20202116841F21C0321F429
:1024E00080011160C4F202031A6842F400021A600B
:1024F000704700BF054B9B7A1BB9054B01221A6040
:102500007047034B05221A60704700BF6814002013
:10251000B002002040F2144238B5C4F201024FF478
:1025200080214FF480631160C4F20103196840F206
:10253000044221F480211960C4F2010210684FF4B2
:10254000816120F480201060C4F20101086840F22B
:102550000C4240F480200860C4F20102116840F689
:102560009D5421F4802111601D6842F2A14145F47F
:1025700080259020C0F600010022C0F600041D60F6
:10258000A0474FF46143CEF200031A6842F255416E
:1025900042F480121A60C0F600010022E820A04731
:1025A0004EF20412CEF2000211684FF4826341F43D
:1025B00080611160C4F201031A6842F480221A603B
:1025C00038BD00BF41F20C03C4F201031A6818B908
:1025D00042F400521A60704722F400521A607047A9
:1025E000F0B50D4683B0064659B1074F0024335D60
:1025F00005200DF1070101348DF80730B847AC42D2
:10260000F5D303B0F0BD00BFC50C000870B5204C79
:102610002378012B26D01F4D2B68B3F5006F22D0F5
:102620001D4A11688B422FD098BF98B221D9C3F5AB
:1026300000611A4A4029116098B21FD940334039CD
:102640002B6011604026164B012518183246C02118
:10265000144B257098472846134B31469847284617
:10266000124B984770BD0C4B002019682860034638
:1026700051B1C91A094A40291160DFD8CB182B6023
:1026800000238EB21360DEE70023237070BD00BF0D
:10269000BC020020C4020020C0020020C8020020AA
:1026A000580C0020B9300008F9320008BD3100088C
:1026B00038B54FF2E8724FF2F073C1F6FF72C1F60F
:1026C000FF7312681B684FF2EC71C1F6FF71D018EE
:1026D0000C6807D004490822044DA8472046044945
:1026E0000422A84738BD00BF06000020652400086A
:1026F0001600002030BF704708B538B1064B1B6884
:102700001B689847054B18680A3008BD034B012227
:102710001B681A8208BD00BF8414002088140020A2
:1027200008B538B1064B1B689B689847054B18687D
:102730000C3008BD034B01221B681A8208BD00BF84
:10274000841400208814002008B5002837D0214BBD
:10275000214800211A680180137813F07F0317D0F5
:10276000012B2BD0022B28D1537903F00F029200BA
:1027700002F1804202F5B84213F0800F136823D1B2
:1027800003F44053B3F5805F11D1012303700EE0D1
:10279000527A02F02003DBB202F040028B42D2B246
:1027A00018BF0223002AF1D043F0010303700B4B42
:1027B0001B681B699847084808BD084608BD054BBB
:1027C00002221B681A8208BD03F03003102BEED1E1
:1027D000DBE700BF88140020581400208414002078
:1027E0002DE9F8432B4E3468238A207A002B08BF4A
:1027F000042814BF4FF000084FF001080AD1264BFF
:102800001A78012A30D0254B102207271A80277208
:10281000BDE8F883A78AA2699F4234BF3D461D46A2
:102820002846BB428CBF0227042790471C4B814699
:10283000404698472A4601461A4B4846984729463B
:10284000194B40469847238A628A5B1B2382134BAD
:10285000AD1830221A806582144B34684FF4405210
:102860001A802772BDE8F88345F65042C4F2000290
:10287000116843F2020289B2C2F200028A185200C1
:1028800000211160054A042730201080197027723A
:10289000BDE8F88388140020CC02002090140020AA
:1028A000B9320008B9300008F93200088E1400204F
:1028B00010B50B4B0B4A1B685178DA78914201D264
:1028C000022010BD99780029FAD19C88002CF7D1FC
:1028D0009A72054B1B685B689847204610BD00BF85
:1028E00088140020E40000208414002038B5104A29
:1028F000104C1268236892695879D97890472368F8
:102900009A7A0AB9022038BD0028FBD11A79002A28
:10291000F8D19D78002DF5D1074B1B68DB689847EF
:10292000236828465979DA78D9721A7338BD00BFFE
:1029300060140020881400208414002038B5354B22
:102940001B68187810F07F0003D0022806D0022000
:1029500038BD5A7A22F020025A7238BD5A88002AAD
:10296000F6D11A79002AF3D15A7922F08000810039
:1029700001F18044150604F5B84456BF2468256863
:1029800004F44055244C48BF05F030052478A0429B
:10299000DDD2002DDBD09B7A002BD8D002F0800353
:1029A000DBB273B101F1804303F5B8431B6803F058
:1029B0003003102B21D0194B1B685B69984700200E
:1029C00038BD01F1804101F5B844236803F4405358
:1029D000B3F5805FEFD1C8B9114B93F82C10114BB0
:1029E000984722684BF68F73134083F4405343F4A7
:1029F000004343F080032360DDE7C4B220460A4B66
:102A0000984720463021094B9847D4E7084B984710
:102A1000E7E700BF88140020E400002084140020B1
:102A20006000002019330008493200083D310008D9
:102A30002532000838B5224B19684B7923F0800203
:102A4000900000F180441D0604F5B84456BF246888
:102A5000256804F440551B4C48BF05F03005247828
:102A6000A24201D3022038BD4A88002AFAD1002DA3
:102A7000F8D08A7A002AF5D003F0800300F1804272
:102A800002F5B842DBB211687BB148F6BF730B4068
:102A900083F0100343F4004343F0800313600A4BB8
:102AA0001B689B699847002038BD4BF68F730B401D
:102AB00083F4805343F4004343F080031360EEE754
:102AC00088140020E400002084140020054B1B68BB
:102AD0005A8A10B108688018704789888A1A1A8241
:102AE000704700BF8814002008B50C4B002093F8F5
:102AF0002C100B4B98470B4B1B68187A082806D1F3
:102B0000094B4FF480521A80084B10221A80B0F102
:102B1000090CDCF1000050EB0C0008BD6000002047
:102B200019330008881400208E140020901400200F
:102B30002DE9F041354D2C68237A022B18BF042B68
:102B400014BF0026012605D0032B18BF052B07D084
:102B5000072B0ED0082323722D4B9847BDE8F08138
:102B6000A169238A11B35BB9A38A002B49D0294AF2
:102B70002EE0294B1B68DB6898472C680823EAE79E
:102B8000A78A9F4228BF1F4638468847228A638A01
:102B9000D21BFB1880462282638230461F4B984727
:102BA0001F4B01463A4640469847238A002BDBD00C
:102BB0001C4B00204FF4405201461A801A4B984794
:102BC000238AA18A134A30209942108019D9A3B9C7
:102BD0002C68062145F650432172C4F2000319689F
:102BE00043F2020389B2C2F20003CB185B0000215A
:102BF000196030231380237AADE72C6805232372F4
:102C0000A9E72C6803232372A5E700BF88140020DE
:102C1000E92A00089014002060140020D93200082E
:102C2000ED3000088E140020F9320008F0B545F6AA
:102C30005043C4F200039D4D1A682C6843F204030C
:102C400092B2C2F20003D318227A5B00092A83B041
:102C50001E6844D0B6B2760006F1804606F5C0463E
:102C60003378934F237073786370B088B84760806F
:102C700030892C68B847A080B3892C680122E38092
:102C80002272002B30D06178062900F0878000295D
:102C90005ED16388002B00F09480864E336808462E
:102CA0001B69984703282B6862D01A8A4FF6FF7178
:102CB0008A425DD002280CD05AB193F90010002945
:102CC000C0F2B58003221A727B4B4FF440521A8037
:102CD00001E008221A72794B984703B0F0BDE388EF
:102CE00001222272002BCED12378667813F07F0365
:102CF00041D1092E00F00881052E00F0BF80032E7F
:102D000000F0F080012E3BD1E378012B38D1A3886D
:102D1000002B35D1637A03F02003DBB2002B2FD0D8
:102D2000674B984760BB2C6845F65043C4F20003DC
:102D30001A6843F2020392B2C2F20003D3185B0096
:102D400000221A605F4A0623302111802372C2E7F5
:102D5000082948D123785B069FD15B4B0020A361F3
:102D6000608298472B684FF6FF711A8A8A42A3D176
:102D700009221A72AFE7012B71D0022B00F08D806F
:102D80004C4B30461B685B699847032800F0C580B0
:102D90002C680028C8D0082323729CE723785B06A0
:102DA0007FF47BAFA378434E012B00F0B080022B61
:102DB0005ED0032B7FF472AF33685B6A002BCDD1FA
:102DC0006CE7636823F47F43B3F5003F7FF465AF9E
:102DD000237813F07F0340F0A480A388002B7FF4B6
:102DE0005CAF3A4BBAE70A297FF457AF237803F078
:102DF0007F03012B7FF451AFA37A002B3FF44DAF3B
:102E00006388002B7FF449AF62682A4E22F47F4228
:102E1000B2F5803F7FF442AF32681946607993691A
:102E20009847002840F0BE802C68294B96E7D98847
:102E300001910198824217D88A421E4E08D2316809
:102E400091F82C108A4280F09580224A002111705E
:102E5000326892F82C209A821F4B98473BE70B2E42
:102E60008ED11E4B98475DE7019A124E1A82EFE70A
:102E700033681B6A002B7FF471AF0FE794F90330BE
:102E8000002B88DBA378002B85D1A388002B82D16F
:102E9000A37A002B3FF448AF7DE7012E3FF440AF0B
:102EA000032E7FF46DAF0E4B98473BE7881400204C
:102EB00081330008601400208E140020E92A0008E5
:102EC0003D29000890140020F92600084927000831
:102ED00021270008CC020020E1270008ED28000887
:102EE000352A0008E378012B7FF44AAFA388002B32
:102EF0007FF446AF627A2D4B42F020021B6862726B
:102F0000DB6998472C680FE7294B98470AE7336835
:102F1000DB69002B7FF422AFC0E62C680923237203
:102F2000D9E6012B31D0022B7FF4B7AE637903F0E1
:102F30000F02900000F180401E0600F5B84056BF19
:102F40000068066800F440561A4848BF06F030068C
:102F500000788242BFF4A1AE13F0700F14BF0023BB
:102F60000123002E0CBF002603F00106002E7FF483
:102F700038AF92E692FBF1F001FB1022002A7FF4B9
:102F800067AF0D4A0121117062E70C4E607933681A
:102F90009B69984730B92C68A37A002B7FF421AF46
:102FA00061787BE62B68597878E600BF84140020AE
:102FB000B1280008E4000020CC02002060140020AA
:102FC00070B40F4B1E7896B14FF4B844C4F20004AD
:102FD0000023256843F4004140F60F7241F0800160
:102FE0002A4001330A439E4244F8042BF1D845F6A7
:102FF0004C4340F08000C4F20003186070BC70477E
:10300000E400002010B5144C23681A7A022A18BF75
:10301000042A10D0062A04D008221A720F4B9847AF
:1030200010BD5A78052A0BD00D4B1B689B6898473A
:1030300023680822F1E70B4B984723681A7AECE7DC
:103040001A785206F0D1D878074B9847074B1B687F
:103050001B6A9847E8E700BF88140020E92A0008A7
:1030600060140020E1270008C12F0008841400200C
:10307000704700BF10B541F2684241F28844C2F285
:103080000002C2F2000422600224147241F2604085
:1030900040F2600341F2844140F29002C2F2000328
:1030A000C2F20000C2F20001C2F2000203600A6034
:1030B0001B68984710BD00BF01F1005101F5405158
:1030C00001324900531010B40DD00A1D023010F81F
:1030D000014C10F8021C023041EA042122F8041CC1
:1030E0000432013BF3D110BC704700BF01F1005125
:1030F00001F5405101324900531008D002300A1F37
:1031000052F8041F20F8021C0230013BF8D170472E
:103110004FF6F87345F650420340C4F200021360C4
:10312000704700BF800000F1804202F5B84210688D
:1031300048F68F130340194311607047800000F177
:10314000804202F5B84210B401F01000146848F64D
:10315000BF7380B2234068B99BB201F0200189B2ED
:1031600009B183F0200343F4004343F0800313606C
:1031700010BC704783F01003EFE700BF800000F140
:10318000804202F5B84210B401F4805014684BF646
:103190008F7380B2234068B99BB201F4005189B2A9
:1031A00009B183F4005343F4004343F080031360F8
:1031B00010BC704783F48053EFE700BF800000F13C
:1031C000804202F5B842116848F6BF730B4083F0A5
:1031D000300343F4004343F080031360704700BFA3
:1031E000800000F1804202F5B84211684BF68F73FF
:1031F0000B4083F4405343F4004343F080031360D7
:10320000704700BF800000F1804202F5B8421168AB
:1032100040F60F630B4043F4004343F08003136018
:10322000704700BF800000F1804303F5B8431A687F
:10323000510408D5196840F60F720A4042F4404222
:1032400042F080021A607047800000F1804303F56D
:10325000B8431A68500608D5196840F60F720A403C
:1032600042F4004242F0C0021A60704745F65043F3
:10327000C4F200031A684FF6FE7392B202EBC0006C
:1032800000F1005202F5405252000B4013607047AB
:1032900045F65043C4F200031A6843F2040392B2A5
:1032A00002EBC000C2F20003C3184FF6FE725B00CF
:1032B0000A401A60704700BF45F65043C4F200034D
:1032C0001B689BB203EBC00000F1005303F54053B1
:1032D0005B001888704700BF45F65043C4F20003F6
:1032E0001A6843F2040392B202EBC000C2F2000378
:1032F000C3185B001888704745F65043C4F20003BA
:103300001A6843F2020392B202EBC000C2F2000359
:10331000C3185B001960704745F65043C4F20003C0
:103320001A6843F2060392B202EBC000C2F2000335
:10333000C3185B003E2909D94A09C90601D1013ADF
:1033400092B2920242F400421A6070474A08C807DB
:1033500048BF013292021A60704700BF45F65043E1
:10336000C4F200031A6843F2060392B202EBC000F3
:10337000C2F20003C3185B0018688005800D704717
:10338000C3B2000A40EA0320704700BF10B441F204
:103390008C4345F6444445F640424FF43F410020FB
:1033A000C4F20004C2F20003C4F2000220601980DB
:1033B000116010BC704700BF70B543F25D3300F080
:1033C0007F052846C0F600030E46984743F2D923EE
:1033D0000446C0F600032846984743F2ED03014631
:1033E00022463046C0F600039847204670BD00BF15
:1033F0002DE9F04FDFF8ACA183B045F6444B002334
:10340000DFF8A491624DADF80630C4F2000BD0464F
:10341000DBF800304FF4B8449AB21B04AAF800203D
:1034200040F1AB80B8F80020C4F2000402F00F02B3
:10343000900000F18040574E4BF6BF71544F134639
:1034400000F5B84089F80020002A33D123689BB2E8
:103450002B802B8803F0300333802B8803F44053F8
:103460002B802368194081F4005181F0200141F440
:10347000004141F080012160B8F8003003F01003F2
:103480009BB2002B49D023689BB2ADF80630BDF843
:10349000063003F400639BB2002B71D1BDF80630F7
:1034A0001BB2002BB4DA226840F68F7313402360FE
:1034B000394B38E0026892B2ADF80620BDF806201C
:1034C00012B2002A1BDBBDF8063003F080039BB26A
:1034D000002B9DD099F8001048F60F738A0002F176
:1034E000804202F5B842106801390340136040F28F
:1034F0002002C2F2000252F82130984788E70168A2
:1035000040F68F720A40026040F23C02013BC2F278
:10351000000252F823309847D5E7226848F60F7327
:10352000134023601D4B984721683A884BF6BF73C0
:1035300002F4805292B20B400AB183F480533A886D
:1035400002F4005292B20AB183F40053328802F0BE
:10355000100292B20AB183F01003328802F0200206
:1035600092B20AB183F0200343F400434FF4B8420F
:1035700043F08003C4F20002136003B0BDE8F08F93
:10358000226840F68F7313402360054BCBE700BFE2
:103590008E14002090140020312B00080530000804
:1035A0002D2C0008300C0020641400200A0A0000B2
:1035B0002A2A2A2A2A2A2A2A2A2A2A2A2A2A2A2A6B
:1035C0002A2A2A2A2A2A2A2A2A2A2A2A2A2A2A2A5B
:1035D0002A2A2A2A2A2A2A2A2A2A2A2A2A2A2A2A4B
:1035E0002A2A2A2A2A2A2A0A00000000202020202B
:1035F00020202020202020202020202020202020CB
:1036000020204D454E552020202020202020202005
:1036100020202020202020202020202020202020AA
:103620002020200A000000002A20312E204C454492
:10363000202B20202020202020202020202020207F
:10364000202020202020202020202020202020207A
:1036500020202020202020202020202020202A0A76
:10366000000000002A20322E204C4544202D20202E
:10367000202020202020202020202020202020204A
:10368000202020202020202020202020202020203A
:10369000202020202020202020202A0A00000000B6
:1036A0002A20332E2050574D20202020202020205B
:1036B000202020202020202020202020202020200A
:1036C00020202020202020202020202020202020FA
:1036D0002020202020202A0A000000002A20342E4A
:1036E0002044485431312020202020202020202038
:1036F00020202020202020202020202020202020CA
:1037000020202020202020202020202020202020B9
:1037100020202A0A000000002A20352E2020202008
:103720002020202020202020202020202020202099
:103730002020202020202020202020202020202089
:1037400020202020202020202020202020202A0A85
:10375000000000002A20362E2020202020202020BB
:103760002020202020202020202020202020202059
:103770002020202020202020202020202020202049
:10378000202020202020202020202A0A00000000C5
:103790002A20372E202020202020202020202020FA
:1037A0002020202020202020202020202020202019
:1037B0002020202020202020202020202020202009
:1037C0002020202020202A0A000000002A20382E55
:1037D00020202020202020202020202020202020E9
:1037E00020202020202020202020202020202020D9
:1037F00020202020202020202020202020202020C9
:1038000020202A0A000000002A20392E2020202013
:1038100020202020202020202020202020202020A8
:103820002020202020202020202020202020202098
:1038300020202020202020202020202020202A0A94
:10384000000000002A206D2E20204D656E7520207E
:103850002020202020202020202020202020202068
:103860002020202020202020202020202020202058
:10387000202020202020202020202A0A00000000D4
:103880003E3E20004C45442044656C61792025640F
:10389000206D73200A00000050574D204475747944
:1038A000202564200A00000048203A2025642C20AE
:1038B00054203A202564200A0000000043616E274E
:1038C000742066696E64204D505536303530200ABC
:1038D00000000000457272207772697465204D50B7
:1038E00055363035305F52415F5057525F4D474D2E
:1038F000545F31203A2025640A000000260353005B
:1039000054004D006900630072006F0065006C0098
:1039100065006300740072006F006E006900630050
:1039200073000000120100020200004083044057AF
:1039300000020102030100000403090432035300E2
:1039400054004D0033003200200056006900720020
:103950007400750061006C00200043004F004D00B2
:10396000200050006F007200740020002000000052
:1039700009024300020100C03209040000010202F2
:1039800001000524001001052401000104240202A5
:103990000524060001070582030800FF0904010051
:1039A000020A00000007050302400000070581022B
:0439B00040000000D3
:1039B400640000001A03530054004D003300320029
:1039C40000000000000000000000000000000000F3
:1039D400C51C0008713000087130000871300008FF
:1039E400713000087130000871300008713000082F
:1039F40071300008391D000871300008713000086A
:103A0400713000087130000870390008430000006C
:103A1400F1210008E1200008AD1F0008C11F0008C3
:103A2400C51F00082520000849200008C9200008F7
:103A3400B1200008892000080000000040000000B8
:103A440071300008851F00087130000871300008CB
:103A540071300008713000087130000871300008BE
:103A64009D1F00082439000812000000383900089E
:103A740004000000FC380008260000003C3900085F
:103A840032000000040000201A00000000C20100FF
:083A940000000800040100001D
:040000050800086582
:00000001FF
